:020000040800F2
:100000000007002029050008652800086928000865
:10001000C128000869280008952800082B05000859
:100020002B0500082B0500082B050008693B00087C
:100030002B0500082B0500082B0500082B050008E0
:100040002B0500082B0500082B0500082B050008D0
:100050002B0500082B05000879650008A565000838
:10006000D1650008FD650008296600082B05000819
:100070002B0500082B0500082B0500082B050008A0
:100080002B0500082B0500082B050008E1270008B8
:10009000F1270008052800082B0500085566000810
:1000A0002B0500082B0500082B0500082B05000870
:1000B000E16300082B0500082B0500082B0500084C
:1000C0002B0500082B0500082B0500082B05000850
:1000D0002B050008753D0008893D00082B05000828
:1000E000BD6600082B0500082B0500082B0500083D
:1000F0002B0500082B0500082B0500082B05000820
:100100002B0500082B0500082B0500082B0500080F
:100110002B0500082B0500082B0500082B050008FF
:100120002B0500082B0500082B0500082B050008EF
:100130002B0500082B0500082B05000819280008CE
:10014000292800083D2800082B050008E15B00086D
:100150002B0500082B0500082B0500082B050008BF
:100160002B0500082B0500082B0500082B050008AF
:100170002B0500082B0500082B0500082B0500089F
:100180002B0500082B0500082B0500082B0500088F
:100190002B0500082B0500082B0500082B0500087F
:1001A0002B0500082B0500082B0500082B0500086F
:1001B0002B0500082B0500082B0500082B0500085F
:1001C0002B0500082B0500082B0500082B0500084F
:1001D0002B0500082B0500082B0500082B0500083F
:1001E0004919000800000000D0400B1CD1409C467B
:1001F000203AD34018435242634693401843704715
:100200009140031C90409C46203A9340194352422F
:100210006346D3401943704753B94AB9002908BF10
:1002200000281CBF4FF0FF314FF0FF3000F07AB9CB
:10023000ADF1080C6DE904CE00F006F8DDF804E03D
:10024000DDE9022304B070472DE9F0478C460D46E6
:100250000446089E002B51D18A4217466DD9B2FA46
:1002600082FEBEF1000F0BD0CEF1200C01FA0EF58C
:1002700020FA0CFC02FA0EF74CEA050C00FA0EF418
:100280004FEA174A250CBCFBFAF81FFA87F90AFB5C
:1002900018CC45EA0C4508FB09F3AB420AD9ED1925
:1002A00008F1FF3280F02381AB4240F22081A8F1B7
:1002B00002083D44ED1AA4B2B5FBFAF00AFB105552
:1002C00044EA054400FB09F9A14509D9E41900F104
:1002D000FF3380F00A81A14540F2078102383C4497
:1002E000A4EB090440EA08400021002E61D024FA62
:1002F0000EF4002334607360BDE8F0878B4207D9A9
:10030000002E54D0002186E821000846BDE8F08781
:10031000B3FA83F1002940F08E80AB4202D38242CF
:1003200000F2FA80841A65EB03050120AC46002E2A
:100330003FD086E81010BDE8F08712B90127B7FB5F
:10034000F2F7B7FA87FEBEF1000F34D1EB1B3A0C7F
:100350001FFA87FC0121B3FBF2F8250C02FB1833CE
:1003600045EA03450CFB08F3AB4207D9ED1908F148
:10037000FF3002D2AB4200F2D1808046ED1AA3B228
:10038000B5FBF2F002FB105543EA05440CFB00FC00
:10039000A44507D9E41900F1FF3302D2A44500F2C5
:1003A000B8801846A4EB0C0440EA08409DE73146AB
:1003B0003046BDE8F087CEF1200405FA0EF307FAC7
:1003C0000EF720FA04F83A0C25FA04F448EA030878
:1003D000B4FBF2F14FEA184502FB11441FFA87FC07
:1003E00045EA044501FB0CF3AB4200FA0EF409D9CF
:1003F000ED1901F1FF3080F08A80AB4240F2878036
:1004000002393D44EB1A1FFA88F5B3FBF2F002FB08
:10041000103345EA034500FB0CF3AB4207D9ED1955
:1004200000F1FF386FD2AB426DD902383D44EB1A70
:1004300040EA01418FE7C1F1200722FA07F88B401B
:1004400005FA01F448EA030320FA07FE4FEA134CC9
:10045000FD404EEA040EB5FBFCF94FEA1E440CFBCE
:1004600019551FFA83F844EA054509FB08F4AC4224
:1004700002FA01F200FA01FA08D9ED1809F1FF3089
:1004800043D2AC4241D9A9F102091D442D1B1FFAE8
:100490008EFEB5FBFCF00CFB10554EEA054400FB4C
:1004A00008F8A04507D9E41800F1FF3529D2A04586
:1004B00027D902381C4440EA0940A4EB0804A0FBF9
:1004C00002894C45C6464D4615D312D056B1BAEBFB
:1004D0000E0364EB050404FA07F7CB401F43CC403E
:1004E000376074600021BDE8F0871846F8E6904652
:1004F000E0E6C245EAD2B8EB020E69EB030501382B
:10050000E4E72846D7E7404691E78146BEE7014643
:1005100078E702383C4445E7084608E7A8F10208B6
:100520003D442BE7704700BF02E000F000F8FEE713
:1005300072B6394880F30888384880F3098838480B
:100540004EF60851CEF20001086040F20000CCF2F5
:1005500000004EF63471CEF200010860BFF34F8FF9
:10056000BFF36F8F40F20000C0F2F0004EF68851EA
:10057000CEF200010860BFF34F8FBFF36F8F4FF0D3
:100580000000E1EE100A4EF63C71CEF20001086068
:10059000062080F31488BFF36F8F04F0DDFF05F0B1
:1005A00083FE4FF055301F491B4A91423CBF41F832
:1005B000040BFAE71C49194A91423CBF41F8040B6D
:1005C000FAE71A491A4A1B4B9A423EBF51F8040BEC
:1005D00042F8040BF8E700201749184A91423CBF43
:1005E00041F8040BFAE704F0BBFF05F0B1FE144C30
:1005F000144DAC4203DA54F8041B8847F9E700F0C5
:1006000041F8114C114DAC4203DA54F8041B8847F1
:10061000F9E704F0A3BF000000070020002300203A
:10062000000000080001002000070020B873000847
:10063000002300209423002098230020EC66002053
:10064000E0010008E4010008E4010008E4010008FA
:100650002DE9F04F2DED108AC1F80CD0C3689D46EE
:10066000BDEC108ABDE8F08F002383F31188284683
:10067000A047002004F02CFBFEE704F07DFA00DF29
:10068000FEE70000F8B52E4B042200241A705A70C1
:1006900007229C70DC701C715C719C71DC711C7297
:1006A0005C729A72DC7204F0FDFE064604F04EFFA6
:1006B000054678BB234B9E422ED001339E422ED05E
:1006C000214B26F0FF029A422CD1F0B200F04CFDF3
:1006D0002F4642F2107400F075FF00F04BFD28B376
:1006E00035B11A4B9E4203D004F028FF0024274660
:1006F000002004F0E1FE0FB100F072F801F006FBFB
:1007000000F082FF01F08CF9204600F0CBF800F0F9
:1007100067F8F9E70746DEE707460446DBE70446E5
:100720000127D8E7074640F6C414D4E715B1074BB4
:100730009E42D9D1002004F0BFFE0024DEE700BFB6
:1007400098230020010007B0000008B0263A09B045
:1007500008B501F037F9A0F120035842584108BD0F
:1007600007B5054B02211B88ADF8043001A801F044
:1007700047F903B05DF804FBD46A000810B52023E4
:1007800083F311881248C3680BB104F03DFB0023CA
:10079000104A0F484FF47A7104F0E4FA002383F30F
:1007A00011880D4C236813B12368013B23606368F3
:1007B00013B16368013B6360084B1B7833B963680E
:1007C00023B9022001F010FA3223636010BD00BF8C
:1007D000A42300207D070008C0240020B8230020A7
:1007E00010B5274B274953F8042F013200D110BD13
:1007F0008B42F8D1244C254B22689A423ED9244B97
:100800009B6803F1006303F580339A4236D204F00B
:1008100069FE04F07BFE002001F01CF91D4B022054
:10082000187001F0D9F91C4B1A6C00221A64196E69
:100830001A66196E596C5A64596E5A665A6E5A691C
:1008400042F080025A615A6922F080025A615A6964
:100850001A6942F000521A611A6922F000521A61B4
:100860001B6972B60D4A0E4B13601B68226820216B
:1008700081F311889D4683F30888104710BD00BF9F
:10088000FCFF00081C00010804000108FFFF00082D
:1008900098230020B82300200038024008ED00E033
:1008A000000001082DE9F04F99B0B34C01902022CF
:1008B000FF2110A8A66801F0CBF9B04A1378A3462F
:1008C000A3B9AF480121C3601170202383F31188BD
:1008D000C3680BB104F098FA0023AA4AA8484FF461
:1008E0007A7104F03FFA002383F31188019B13B15E
:1008F000A54B019A1A60A54AA349019F02920023C1
:1009000013704B6099461C461D469846012001F025
:1009100063F9002F00F012829B4B1B68002B40F004
:100920000D8219B0BDE8F08F0220FFF711FF0028FB
:1009300040F0FB81019BB9F1000F08BF1F46944BAB
:100940001B88ADF82C3002210BA801F059F8DDE727
:100950004FF47A7001F036F8031E0393EADB0220AD
:10096000FFF7F6FE82460028E4D0039B581E0428B9
:1009700000F2DD81DFE800F0030E1114170018A863
:10098000052340F8343D042101F03AF854464FF075
:10099000000856E004217848F6E704217D48F3E793
:1009A00004217D48F0E71C24204601F055F804346A
:1009B0000B9004210BA801F023F82C2CF4D1E5E7CF
:1009C000002DB7D0002CB5D00220FFF7C1FE0546A0
:1009D000002800F0AF8101206C4C01F03BF80220B0
:1009E000207001F0F9F84FF000095FFA89FA5046DB
:1009F00001F040F8074658B1504601F04BF809F1B4
:100A000001090028F1D12C46A9460027634B97E73E
:100A100001230220237001F0D5F83E46DBF80830B0
:100A20009E4206D2304601F017F80130EBD1043671
:100A3000F4E7029B00261E70534BA9465E602C46CD
:100A4000374601F059F915B1002C18BF0027FFF700
:100A500087FE5BE7002D3FF46DAF002C3FF46AAFDB
:100A6000029B0220187001F0B7F8322000F0AAFFB4
:100A7000B0F1000AC0F25E811AF0030540F05A811D
:100A8000DBF8082006EB0A03934200F25381BAF523
:100A9000807F00F24F8155450DDA4FF47A7000F0F7
:100AA00091FF0490049B002BC0F244813C4A049BBC
:100AB000AB540135EFE7C820FFF74AFE0546002892
:100AC00000F038811F2E11D8C6F12004544528BFEC
:100AD000544610AB26F0030022463149184401F079
:100AE0008DF82246FF212E4801F0B2F84FEAAA0AFB
:100AF0005FFA8AF22A49304601F0B2F8044600282B
:100B000000F01A8106EB8A0605469AE70220FFF7F5
:100B10001FFE00283FF40EAF00F0E2FF00283FF474
:100B200009AF4FF0000A5346DBF8082092451CD26B
:100B3000BAF11F0F12D8109A01320FD02AF0030217
:100B400018A90A4452F8202C0B92184604220BA92B
:100B500002F038F80AF1040A0346E5E75046039329
:100B600000F07AFF039B0B90EFE718A8042140F8F0
:100B70004C3D00F045FF64E798230020BC24002092
:100B8000A42300207D070008C0240020B8230020F3
:100B9000D66A00089C230020A0230020D86A000801
:100BA000BC23002018A8002340F8343D642100F045
:100BB0001DFF00287FF4BEAE0220FFF7C9FD00280C
:100BC0003FF4B8AE0B9800F077FF18AB43F8480D30
:100BD00004211846CDE718A8002340F8343D6421CD
:100BE00000F004FF00287FF4A5AE0220FFF7B0FD5F
:100BF00000283FF49FAE0B9800F06CFF18AB43F851
:100C0000440DE5E70220FFF7A3FD00283FF492AE74
:100C100000F076FF18AB43F8400DD9E70220FFF74C
:100C200097FD00283FF486AE0BA9142000F06EFF5C
:100C3000824618A8042140F83CAD00F0E1FE514680
:100C40000BA896E7322000F0BDFEB0F1000AFFF6D7
:100C500071AE1AF0030F7FF46DAEDBF808200AEBDB
:100C6000080393423FF666AE0220FFF771FD0028AD
:100C70003FF460AE2AF0030AC244D0453FF4E1AE2F
:100C8000404600F0E9FE04210A900AA800F0B8FEF0
:100C900008F10408F1E74FF47A70FFF759FD0028D6
:100CA0003FF448AE00F01CFF00283FF4AFAE109BAD
:100CB00001330CD0082210A9002000F0D1FF002839
:100CC0003FF4A4AE2022FF2110A800F0C1FFFFF7DF
:100CD00047FD394804F002F823E6002D3FF42AAE20
:100CE000002C3FF427AE18A8002340F8343D6421BF
:100CF00000F07CFE824600287FF41CAE0220FFF745
:100D000027FD00283FF416AE0390FFF729FD41F2BE
:100D1000883003F0E3FF0B9801F028F800F0ECFFB7
:100D2000039B57461C461D46F0E5054689E64FF0F5
:100D30000008FFE52546FDE52C4667E6002000F0AB
:100D400041FE0490049B002B01DA00F0ADFC049BF3
:100D5000002BFFF6DEAD012000F034FF049B213BA9
:100D6000122B3FF6D3AD01A252F823F02909000857
:100D700051090008C10900080D0900080D09000803
:100D80000D090008550A0008450C00080D0B000865
:100D9000A50B0008D70B0008050C00080D0900087A
:100DA0001D0C00080D090008970C0008430A0008F4
:100DB0000D090008DB0C0008A086010009490B683A
:100DC00049F269009AB21B0C00FB0233064A0B6021
:100DD000136844F2506198B21B0C01FB00301060A4
:100DE00080B27047042300200023002010B50021AA
:100DF0001022044600F02CFF034B03CB20606160FF
:100E00001868A06010BD00BF107AFF1FF0B51F4C1E
:100E1000BBB001F06FFDA368C31AF92B30D906AD42
:100E20002346A06028220021284602F055FC04F148
:100E30000E0000F005FF0023C6B2591D5F1CDBB297
:100E4000B3424FEAC10107DA0E3323440822284691
:100E500002F042FC3B46F0E7012303930823207B8A
:100E600002930B4B0193C1F3CF0130230591009303
:100E70000146049503A3D3E90023064802F0FCF9D8
:100E80003BB0F0BD78F6339F93CACD8DA8560020B5
:100E9000B5560020E03400202DE9F0410E4CDFF87B
:100EA00040800E4FA4F5865646F8108C14F8783C16
:100EB00043B954F87C5C2DB1284601F043FD284627
:100EC00005F088FCA4F19000A6F1100401F03AFDB1
:100ED000A742E7D1BDE8F081A856002008350020E0
:100EE000006D000870B50D4614461E4602F06AF902
:100EF00050B9022E0ED1012C0CD112A3D3E900233C
:100F0000C5E90023012070BD052C14D003D8012CA5
:100F100009D0002070BD282C09D0302CF9D10BA3AA
:100F2000D3E90023ECE70BA3D3E90023E8E70BA305
:100F3000D3E90023E4E70BA3D3E90023E0E700BFF4
:100F4000AFF30080401DA12026812A0B78F6339F45
:100F500093CACD8D9E6AC421818A46EE2641727263
:100F6000DF25D7B7F017304A39059E5638B5044605
:100F70000D46034620222846002102F0ADFB2279CF
:100F80002346032A28BF032203F8042F28460222FF
:100F9000202102F0A1FB62792346072A28BF0722FD
:100FA00003F8052F28460322222102F095FBA2799F
:100FB0002346072A28BF072203F8062F28460322C4
:100FC000252102F089FB284604F10803102228217C
:100FD00002F082FB382038BD2DE9F04FADF5017DE0
:100FE00021AE0EAD40F2791280460F463046002108
:100FF00000F02EFE48220021284600F029FE01F0D4
:1010000079FC574B4FF47A72B0FBF2F0186093E81A
:101010000700012385E807002B740DF15A00002317
:101020006B74FFF7E3FE042385F8203085F8213048
:1010300007AB18464B4905F041FD1822286431469C
:10104000284685F83C20FFF791FF12AB0446014685
:101050000822304602F040FB0822A1180DF1490396
:10106000304602F039FB0DF14A03082204F1100169
:10107000304602F031FB13AB202204F11801304658
:1010800002F02AFB14AB402204F13801304602F092
:1010900023FB16AB082204F17801304602F01CFB5A
:1010A0000DF15903082204F18001304602F014FBCF
:1010B00004F1880A0DF15A0904F5847B4B46514628
:1010C000082230460AF1080A02F006FBD34509F16E
:1010D0000109F3D11BAB08225946304602F0FCFA55
:1010E00004F588744FF0000995F834304B4510D85A
:1010F0004FF0000995F83C304B4515D92B6C214633
:101100004B440822304602F0E7FA083409F101099D
:10111000F0E7AB6B21464B440822304602F0DCFA84
:10112000083409F10109DFE7E31DC3F3CF03F97EBA
:101130000593002304960393BB7E02931937012382
:101140000093019704A3D3E90023404602F094F8EA
:101150000DF5017DBDE8F08F9E6AC421818A46EEBF
:10116000C82400200C6C0008014B1870704700BFA9
:10117000D4240020F0B5334B1C7B85B034B1324B06
:101180000E221A810024204605B0F0BD2F4A1068B7
:10119000516802AB03C308230DEB03022C492D4811
:1011A00005F06EFB054630B9274B2B480A221A8101
:1011B00001F04EFBE6E70169B1F5E02F06D9224BBD
:1011C00026480B221A8101F043FBDCE7438B40F2F7
:1011D0000442934207D01C490C200881194620483C
:1011E00001F036FBCFE71F4A024402F11003994297
:1011F00004D2154B1C4810221A81E4E710398E1ACC
:101200002046144901F0DEFC3246074605F118017C
:10121000204601F0D7FCAB689F4202D1EB689842B0
:101220000AD0094B0D221A8100903B46EA68A96852
:101230000E4801F00DFBA5E70D4801F009FB012464
:10124000A1E700BFA8560020C8240020DC6A0008DF
:10125000DCFF060000000108E46A0008F06A0008EC
:10126000026B00080800FFF7206B00083D6B0008C8
:10127000666B00082DE9F04FADB006AF80460C4616
:1012800001F0A0FF054600286AD1237E022B18D169
:10129000E38A012B15D101F02DFB8146FFF78EFD6E
:1012A0004FF4C873BD4EB0FBF3F209F5167902FB9B
:1012B0001300E37E19FA80F030608BB9B84B00223E
:1012C0001A709C37BD46BDE8F08F3B1D1D4400954C
:1012D000002308224FEAC901204602F061F84D467A
:1012E000A38A013BAB425FFA85F90BD905F10109ED
:1012F000B9F1110FE9D1AB4BAB4A40F23911AB4810
:1013000005F072FA07F11400FFF770FD2A4607F1A5
:101310001401381D05F0A4FA03460028CED1B9F116
:10132000100F07D09E4B83F800903368A3F5167317
:101330003360C6E707F19802014602F8950D204692
:101340000092072202F02CF8F9787F2904DD984BEF
:10135000954A4FF4A871D2E7404601F017FFB0E775
:10136000E38A052B00F0068106D8012BA9D121467E
:101370004046FFF731FEA4E7282B3DD0302BA0D10B
:10138000637E8C4D01336A7BDBB29342E94640F0C9
:10139000EF80E27E2B7B9A4240F0EA8007F19803CF
:1013A000002623F8846D1022009331460123204645
:1013B00001F0F6FFB4F81480A8F102081FFA88F8CB
:1013C00008F1030323F003030A3323F00703ADEB13
:1013D000030D0DF1180A33469BB2B11C98454FEA34
:1013E000C10106F101066CDD53440093082200237D
:1013F000204601F0D5FFEEE7A38A013B9BB2C92B43
:101400003FF65FAF6B4E357B4DBB06F10C0300938F
:1014100008222B462946204601F0C2FFA38A05F187
:101420000109013BEDB29D424FEAC90109DA0E35CF
:101430003544009500230822204601F0B1FF4D46B7
:10144000ECE700230022C6E900230023B36086F8FE
:10145000D730C6F8D830337B0BB9E37E3373002521
:1014600007F114063B1D0822294630467D60BD6009
:10147000FD6002F031F93B7A05F10109AB424FEA18
:10148000C90107D9FB6808222B44304602F024F931
:101490004D46F0E7C1F3CF010023E07E05910496AD
:1014A0000393A37E029319342823014600930194E9
:1014B00038A3D3E90023404601F0DEFEFFF7A6FC87
:1014C000FFE695F8D70000F0D5FAD5F8D8300646F3
:1014D0001BB995F8D70000F0DDFAD5F8D8304344B1
:1014E0009E4204D295F8D700013000F0D3FA4FEABB
:1014F000980B0024A0B2584504F1010408DA2B68C7
:1015000080000AEB00010122184400F0A9FBF1E77A
:10151000D5E90023D5F8D84095F8D70012EB08029A
:1015200043F100034444C5E90023C5F8D84000F066
:10153000A1FA844209D395F8D730013385F8D73022
:10154000D5F8D8309E1BC5F8D860B8F1FF0F08DC7D
:1015500000232B7300F0C4FAFFF70CFE08B1FFF76D
:101560003FF92B68144A9B0A013313810023AB60B7
:10157000CD46A6E6BFF34F8F1049114BCA6802F45F
:10158000E0621343CB60BFF34F8F00BFFDE700BFA6
:10159000AFF3008026417272DF25D7B7DC3400201C
:1015A000D9340020786B0008286C0008D16B000843
:1015B000F36B0008A8560020C824002000ED00E0CE
:1015C0000400FA0508B54FF000530B4A1968914220
:1015D0000AD10A4A597D117009481B7D0373C9223B
:1015E00008490E3000F00AFBE02200214FF00050C5
:1015F000BDE8084000F02CBB9AAD44C5D4240020BF
:10160000A85600201600002037B51D4D1D4C1E4960
:10161000022301222846637100F0D0FF41F2D0037B
:101620000122EB5818491B6818489847002301937A
:10163000174B00931749184B18484FF4805201F08C
:101640006FFD174B1978254611B1144801F09EFD26
:1016500001F050F90446FFF7B1FB4FF4C87304F5ED
:101660001674B0FBF3F202FB13000E4B14FA80F079
:10167000186003F06BFF08B10F232B8103B030BD5E
:1016800008350020C824002040420F00D845002023
:10169000E50E0008D824002075120008E034002070
:1016A000D4240020DC3400202DE9F04F93B0DFF883
:1016B0007492994D484601F02BFE0246002840D016
:1016C00000240E948DF844400F941094037B8DF801
:1016D000443001460FAB51F8040F496803C3136847
:1016E00012AF43F0004347F8103D2646A0462B5961
:1016F000D3F80CA001F000F9884ACDF80080121848
:1017000005EB040B4FF000034B4158463946D047D8
:1017100004F58654103442F2A0130028C8BF46F0E6
:1017200001069C42E3D17E4C2EB1484601F0F4FD07
:1017300084F80080BEE72378072B00F3DF800133B5
:1017400023700BAF0023DFF8FC910A938DF834303F
:101750000B937B600024264612AA01234FF0000859
:10176000002000218DF81C3002F82B8D2B59CDE97B
:10177000000105EB040BD3F804A007A94346584623
:10178000D0479DF81CA0BAF1000F24D0D9F814302E
:1017900083F00403C9F81430102241460EA800F06B
:1017A00057FA2B5908AA1E690AA90DF11E035846BB
:1017B000B04797E803000FAB83E803009DF834308F
:1017C0008DF844300A9B0E930EA9DDE90823554895
:1017D00001F0E8FF564604F58654103442F2A01397
:1017E0009C42B9D1002EB5D14E4801F0EBFC002847
:1017F0003FD14D4C01F07EF82368984239D301F077
:1018000079F80546FFF7DAFA4FF4C87305F516754F
:10181000B0FBF3F202FB130015FA80F0434D8DF894
:1018200028602E78206016B901238DF82830C6F183
:101830001004E4B20EA8FFF7D9FA062C28BF06243C
:101840000EAB224699190DF1290000F0D7F90AAB29
:10185000039318230293364B019301340123009321
:10186000049429A3D3E900232E4801F0ADFC002302
:101870002B7001F03FF82F4A2F4C1368C31AB3F5B1
:101880007A7F30D3106001F037F802460B462548C6
:1018900001F048FD234801F095FC20B3237B274E3F
:1018A000002B14BF03230223737101F023F80EAD44
:1018B0004FF47A732946B0FBF3F030603046FFF7FF
:1018C00055FB1823073002931D4B0193C0F3CF0043
:1018D00040F255130490009303950DA3D3E9002320
:1018E000104801F071FC237B0BB1FFF78FFA237BCB
:1018F000002B7FF4DCAE13B0BDE8F08F094801F097
:101900000BFD1EE7AFF30080401DA12026812A0BAE
:10191000F1C6A7C1D068080F0835002040420F006B
:101920008D570020E0340020DC340020D934002022
:10193000D834002088570020A8560020C824002052
:101940008C5700200004024010B5084C204600F0DF
:1019500069FB04F58650103000F064FB044A054929
:101960000020BDE8104004F027BF00BF083500206C
:10197000E0570020990E000870B50F4B0C461978FF
:101980000131C9B2012906460FD80C4803681D6A07
:101990004FF47A73534331462246A847844204D118
:1019A000074B00221A70012070BD4FF4FA7003F04B
:1019B00095F9002070BD00BF08230020F05E0020D4
:1019C000D057002007B502AB002203F8012D0121FA
:1019D00002461846FFF7D0FF20B19DF8070003B07C
:1019E0005DF804FB4FF0FF30F9E700000A4608B548
:1019F0000421FFF7C1FF80F00100C0B2404208BDE2
:101A000030B4054C2368DD69044B0A46AC460146F8
:101A1000204630BC604700BFF05E0020A086010079
:101A200070B503F007FC094C094E20800025306892
:101A30002388834208D903F0F7FB33680544013358
:101A4000B5F5803F3360F2D370BD00BFD2570020A0
:101A50009057002003F09EBC00F1006000F580303C
:101A60000068704700F10060920000F5803003F0DC
:101A700027BC0000054B1A68054B1B889B1A834244
:101A800002D9104403F0D0BB0020704790570020CB
:101A9000D257002038B5074D04462868204403F08B
:101AA000CBFB28B928682044BDE8384003F0DCBBF4
:101AB00038BD00BF9057002010F0030308D1B0F5E7
:101AC000007F05D800F10050A0F50840006870477D
:101AD00000207047014BC058704700BF107AFF1FAD
:101AE000064991F8243033B100230822086A81F8AE
:101AF0002430FFF7B7BF0120704700BF9457002084
:101B0000014B1868704700BF002004E070B52A4BF5
:101B10001C68C4F30B03240C63B140F213429342DC
:101B200031D040F2194293422FD040F221429342E9
:101B30002DD10323214A0C2505FB03235D6893F96E
:101B4000082042F201039C4224D0B4F5805F23D0E8
:101B500041F201039C4221D041F203039C421FD079
:101B600041F207039C4208BF3122441E0C44013D50
:101B70000B46A3421ED215F9016F581C96B10346BD
:101B800000F8016CF5E70123D4E70223D2E73F22F6
:101B90000B4DD6E73322E3E74122E1E75A22E4E79F
:101BA0005922E2E72C2584421D7001D9981C5A70F5
:101BB000401A70BD1846FBE7002004E0786C00086E
:101BC0006C6C0008022802BF024B4FF480229A611D
:101BD000704700BF00040240022802BF014B0422EC
:101BE0009A61704700040240022801BF024A53690B
:101BF00083F00403536170470004024010B50023D2
:101C0000934203D0CC5CC4540133F9E710BD00000B
:101C100030B5441E14F9010F0B4660B193F9005022
:101C2000854201F1010106D11AB993F90020801A09
:101C300030BD013AEEE7002AF7D1104630BD000072
:101C400002460346981A13F9011B0029FAD170477E
:101C500002440346934202D003F8011BFAE770479F
:101C60002DE9F047234C94F8243005468846174662
:101C700083BB2E46DFF87C90C7B394F824302BB991
:101C80002022FF2148462662FFF7E2FF94F8240055
:101C9000C0F10805BD4228BF3D465FFA85FAAD0098
:101CA00041462A4604EB8000FFF7A8FF94F8243051
:101CB000A7EB0A079A445FFA8AFABAF1080F2E4492
:101CC000A844FFB284F824A0D6D1FFF709FF00286A
:101CD000D2D108E0266A06EB8306B042CAD0FFF7ED
:101CE000FFFE0028C5D10020BDE8F0870120BDE837
:101CF000F08700BF94570020024B1A78024B1A70ED
:101D0000704700BFD05700200823002038B5124D7F
:101D1000124C284602F0C0FA2146284602F0E8FAA2
:101D200024680F48E26ED2F8043843F00203C2F888
:101D3000043802F0D3FF0B49204602F0E7FBE26EC5
:101D4000D2F8043823F00203C2F80438064B4FF4EB
:101D500061421A6038BD00BFF05E00208471000847
:101D600040420F00AC710008BC57002070470000D3
:101D7000202383F3118862B670470000002383F3A9
:101D8000118862B67047000001207047002070473C
:101D90000020704770470000704700000020704727
:101DA0000E20704700F586500078C0F34000704761
:101DB000F8B51F460B68BDF8185013F000541646CE
:101DC00069D10B7B082B66DCFFF7D2FFC2689368F2
:101DD0005B015CD493681C0157D4936813F0805363
:101DE00057D002230C6803F1180E002CB8BFE40092
:101DF0004FEA0E1EB4BF44F00404640542F80E40DE
:101E00000C680FFA83FE14F0804F18BF02EB0E1C13
:101E100002EB0E1E1EBFDCF8804144F00204CCF839
:101E200080410C7BCEF8844102EB03128C68C2F82F
:101E30008C414C68C2F88841DEF8802142F00102F2
:101E4000CEF8802103F1830200EB4212C2E9006761
:101E500001F10C04083251F8046B42F8046BA14202
:101E6000F9D100EB43130978117003F58353012076
:101E70001A7F65F30002C5F3400565F341026FF375
:101E8000C3021A77FFF77AFFF8BD0123AAE72346BA
:101E9000A8E71846F6E74FF0FF30F8BD08B5FFF7A2
:101EA00067FF41F25403C05800F056FDBDE80840FA
:101EB000FFF764BF38B5044600680D4600F076FDB4
:101EC0001F2809D920222946206800F0E7FDA0F14B
:101ED00020035842584138BD002038BD002202601E
:101EE000027342608260704710B500220023C0E98F
:101EF00000230023044603810C30FFF7EFFF204648
:101F000010BD00002DE9F041064688B041F25405AD
:101F10000C4690461F46FFF72BFF6846FFF7E4FF8D
:101F2000705900F02BFD1F2805D80020FFF726FF71
:101F300008B0BDE8F08120226946705900F036FEF5
:101F40002028F2D103AA234605AD144603CCAC42A7
:101F500018605960224603F10803F6D12068186022
:101F600022791A71DDE90023C8E90023BDF80830A1
:101F70003B800120DAE70000274B2DE9F0470446BB
:101F800040F8103B8946FFF7A9FF04F12000FFF756
:101F9000ABFF04F14006354604F58257284620354C
:101FA000FFF7A2FFBD42F9D14FF4805341F248023E
:101FB0006B6000232E60A35041F24C0241F25401A9
:101FC000A350601801222A7404F5865A655004F55E
:101FD0008355027108350AF1080A00260027984641
:101FE00045E902672846FFF779FF203545F8108C50
:101FF0005545F5D141F2C803B9F1010F04F803903A
:1020000002DD064800F070FC054B53F82930E36010
:102010002046BDE8F08700BF006D0008E46C0008B2
:10202000D06C000810B5044B197804464A1C1A708D
:10203000FFF7A2FF204610BDDC570020F0B579B1B4
:10204000264B2748B0FBF1F0994294BF1023092397
:102050005C1CB0FBF4F704FB170434B1022B01DC69
:102060000020F0BD013BDBB2F2E77E1EB6F5806FCB
:10207000F6D2C3EBC30E0EF10300C010C5B25C1B59
:102080000130E4B24FF47A7C0CFB00FC20449CFB52
:10209000F0F080B2B0F5617F08D90EF1FF354FF056
:1020A000080E95FBFEF5EDB25B1BDCB22B1903FBB2
:1020B00007770B4BB3FBF7F7B942D1D1691EC9B211
:1020C0000F29CDD8631EDBB2072BC9D80020907032
:1020D0001680D17013710120F0BD00BF3F420F0088
:1020E00000366E0170B505460E464FF47A74EB6803
:1020F0005B6803F00103B34207D04FF47A7002F03B
:10210000EDFD013CF3D1204670BD012070BD000003
:10211000F0B5032989B005460C4647DC00F586502A
:1021200066010378C3F38001002908BF114661F3FB
:1021300082030370AB1903F5835318331B79D80757
:1021400032D5002A32D0190723D46846FFF7CCFED7
:1021500005EB441303F5835303F1100703AA083377
:1021600018685968144603C40833BB422246F7D1A5
:10217000186820601B792371DDE90E2305F5825074
:10218000CDE90023694601231430ADF80830FFF78C
:1021900091FE354405F5835518352B791A075CBF38
:1021A00043F008032B7101E0002AF2D109B0F0BD21
:1021B00070B5C268936913F0700F17D000230C4DEF
:1021C000936141F2780400EB4312224411794E07E7
:1021D00009D5890707D5C16855F823608E60117944
:1021E00041F0040111710133032BECD170BD00BF2C
:1021F000D86C0008D3B51F46C36816469A68D20744
:10220000044609D59A6801219960C2F34002CDE9DC
:1022100000670021FFF77CFFE3689A68D1050BD5C2
:102220009A684FF480719960C2F34022CDE900674B
:1022300001212046FFF76CFFE3689A68D2030BD5B3
:102240009A684FF480319960C2F34042CDE900674B
:1022500002212046FFF75CFF204602B0BDE8D040D7
:10226000FFF7A6BF0C4B10B51C56E3B2012B12D8DA
:1022700000F042FB02460B4652EA030103D012F182
:10228000FF3243F1FF33054951F8240018B1BDE88E
:102290001040FFF7AFBF10BDCC6C0008D457002032
:1022A000F8B51F4604461646C368002966D1D868AB
:1022B00003F10C02800765D0106803EB011003EBFB
:1022C0000111D0F8B05115F0040FD0F8B05116BF7D
:1022D000ED086D0D45F000452561D0F8B051AD0712
:1022E00042BF256945F080452561D0F8B40100F072
:1022F0000F002077D1F8B8312375D1F8B8311B0A17
:102300006375D1F8B8311B0CA375D1F8B8311B0E29
:10231000E375D1F8BC312376D1F8BC311B0A637662
:10232000D1F8BC311B0CA376D1F8BC311B0EE3767F
:102330003823136004F11C0104F1100304F12C0292
:1023400053F8040B42F8040B8B42F9D11B7813703D
:1023500004F5825000232385C4E9086704F12001B5
:102360001430FFF7A7FD04F586522046137843F09A
:1023700004031370BDE8F840FFF71ABF03F1100221
:10238000186997E7F8BD00000D4B70B51C56E3B215
:10239000012B0D4613D800F0AFFA02460B4652EA65
:1023A000030103D012F1FF3243F1FF33054951F825
:1023B000240020B12946BDE87040FFF771BF70BD11
:1023C000CC6C0008D45700202DE9F84F9946904670
:1023D000FFF7CEFC124C00F58356002341F278073C
:1023E00000EB431139440A7955070FD4D2060DD5B5
:1023F000D6E900ABCB4508BFC24507D2C26854F846
:10240000235095600A7942F004020A710133032BCC
:1024100006F12006E4D1BDE8F84FFFF7AFBC00BFDE
:10242000D86C000808B5FFF7A3FCFFF7C1FEBDE8B4
:102430000840FFF7A3BC00002DE9F041C368064641
:10244000986800F0E050B0F1E05F0F4619D010B38B
:10245000FFF78EFC06F583540834002541F2780816
:1024600006EB451343441B791A070DD45B070BD4C5
:102470002146384600F042FA30B9FFF77FFCBDE84C
:10248000F0810120BDE8F0810135032D04F1200425
:10249000E6D10120F1E7BDE8F081000008B5FFF7C3
:1024A00067FC41F25403C05800F068FAFFF766FC7D
:1024B0001F288CBF0020012008BD0000F8B51D4674
:1024C000002313700F4606461446FFF7E7FF80F01F
:1024D0000100387025B129463046FFF7ADFF207066
:1024E000F8BD0000F8B50D461F460446164600F03C
:1024F00003FA2B780BB9337873B102460B462046AA
:10250000FFF762FF2046FFF78DFF3B463246294624
:102510002046FFF7D3FF01231846F8BD10B5FFF79B
:1025200027FC41F2C803234AC35CD35C2BB3012BC5
:1025300031D0FFF723FC00F586542378DB0737D42E
:10254000002935D0FFF714FC41F2C803C35CD35C0B
:102550005BB90221132001F041FC0221142001F09B
:102560003DFC0221152001F039FC237843F00103E2
:102570002370BDE81040FFF701BC0F4B1C6C44F00A
:1025800000741C641C6A44F000741C621C6A24F011
:1025900000741C62CDE7084B1C6C44F080641C6422
:1025A0001C6A44F080641C621C6A24F08064F0E7BA
:1025B00010BD00BFC86C0008003802402DE9F04390
:1025C00041F2C80389B0C35C022B04468846174613
:1025D00000F30281814D55F823200AB945F8230004
:1025E0002E68C4F8048027724EB941F2D00004F07E
:1025F000D1F831468146FFF7BFFCC5F8009041F2A3
:10260000C803E35C012B60D001212046FFF786FF61
:10261000FFF7AEFBE268136823F002031360E26881
:10262000136843F001031360E36800255D61FFF761
:10263000A5FB01212046FFF755FD002800F086800C
:1026400041F254032E46E05800F086F92022002182
:102650006846FFF7FDFA02A8FFF740FC0DF1200CD9
:1026600005F583534CF8086D6A4623449646BEE848
:102670000300E64518605960724603F10803F5D17E
:10268000DEF80000186020359EF804201A71602DD5
:10269000DCD104F5865600253378ADF800506FF391
:1026A000820333706A46414620468DF802508DF809
:1026B00003508DF80450FFF7C1FCE368C0B94FF434
:1026C00000421A6009B0BDE8F083286803681B6BFC
:1026D00098470146002897D12868FFF71FFF286810
:1026E00003683A461B684146984700288CD1E9E7C1
:1026F00061221A609DF802309DF80310E2681B0603
:10270000090401F4702103F040730B43BDF800107D
:10271000C1F309010B439DF80410090501F4E00120
:10272000022F43EA01030CBF4FF0004100210B438D
:10273000D361E36813225A61E268136823F001034E
:10274000136029462046FFF7CDFC08B9E368B6E7D9
:1027500041F2C803E15C002939D1E268D2F80032C5
:1027600043F00103C2F80032E268D2F8003223F4E9
:102770007C5323F00E03C2F80032E268D2F8003234
:1027800043F46063C2F80032E368C3F81412E368EC
:10279000C3F80412E3686FF07842C3F80C22E368D0
:1027A000C3F84012E368C3F84412E368C3F8B012F8
:1027B000E368C3F8B412E36844F20102C3F81C22D0
:1027C000E268D2F8003223F00103C2F80032337815
:1027D00043F00203337075E7002073E7D4570020FD
:1027E00008B50020FFF73EFDBDE8084001F0F0B954
:1027F00008B500210846FFF7C7FDBDE8084001F015
:10280000E7B9000008B501210020FFF7BDFDBDE8D4
:10281000084001F0DDB9000008B50120FFF722FDF6
:10282000BDE8084001F0D4B908B500210120FFF748
:10283000ABFDBDE8084001F0CBB9000008B50121AF
:102840000846FFF7A1FDBDE8084001F0C1B900004E
:102850000FB4002004B070470FB44FF0FF3004B045
:1028600070470000FEE7000000B59BB0EFF3098160
:1028700068226846FFF7C2F9EFF30583044B9A6BB1
:10288000DA6A9A6A9A6A9A6A9A6A9A6A9B6AFEE706
:1028900000ED00E000B59BB0EFF3098168226846C7
:1028A000FFF7ACF9EFF30583044B9A6B9A6A9A6AC7
:1028B0009A6A9A6A9A6A9B6AFEE700BF00ED00E096
:1028C00000B59BB0EFF3098168226846FFF796F9DF
:1028D000EFF30583034B5A6B9A6A9A6A9A6A9A6A6B
:1028E0009B6AFEE700ED00E00FB408B5029802F025
:1028F00083F9FEE702F092BD02F07CBD10B50968D5
:102900000468C80FB0EBD47F24F0604221F060432C
:102910000BD0002CB8BF920C0029B8BF9B0C9A4278
:102920000FD034BF0120002010BD9A4205D1C1F361
:102930008070C4F38074844203D19A422CBF00207B
:10294000012010BD10B5037C044613B9006803F0E4
:102950007FFF204610BD00000023BFF35B8FC360E4
:10296000BFF35B8FBFF35B8F8360BFF35B8F7047F9
:10297000BFF35B8F0068BFF35B8F704770B506468F
:102980000C30FFF7F5FF06F1080504462846FFF76F
:10299000EFFF844206D228467668FFF7E9FF344409
:1029A000201A70BD2846FFF7E3FFF9E770B505462A
:1029B000406898B105F10800FFF7DAFF05F10C0651
:1029C00004463046FFF7D4FF8442304694BF6D681A
:1029D0000025FFF7CDFF013C2C44201A70BD0000FC
:1029E00038B50C460546FFF7C9FFA04210D305F1E4
:1029F0000800FFF7BDFF6B68BFF35B8F2044B0FB9F
:102A0000F3F403FB1400A860BFF35B8F012038BD13
:102A1000002038BD2DE9F041144680460D46FFF7F1
:102A2000C5FF844228BF0446DCB1474657F80C6B0B
:102A30003846FFF79DFF304428603846D8F80460D8
:102A4000FFF796FF301AA0423BBF6860D8F800300D
:102A50006C60241A3BBFAB60EC6001200220BDE833
:102A6000F0812046BDE8F08138B50C460546FFF7F9
:102A70009DFFA04210D305F10C00FFF779FF6B68B2
:102A8000BFF35B8F2044B0FBF3F403FB1400E8605A
:102A9000BFF35B8F012038BD002038BD2DE9F04326
:102AA00085B0884669460746FFF7B4FF0026814691
:102AB00001AD34464E4505F108050CDA08EB04017A
:102AC00055F8082C55F80C0CFFF798F855F8083C09
:102AD00001361C44EEE721463846FFF7C5FF204685
:102AE00005B0BDE8F0830000F8B506460C300F468F
:102AF000FFF73EFF06F1080504462846FFF738FFBA
:102B00008442284638BF7468FFF732FF201A3860C5
:102B100020B128463468FFF72BFF2044F8BD0000A1
:102B200073B5144606460D46FFF728FF844228BFBA
:102B300004460190DCB101A93046FFF7D5FF019BA7
:102B400033B93268AB6085E81400EB6001200CE01B
:102B5000A34288BF0194286001986860A042F5D222
:102B60003368AB60241AEC60022002B070BD2046CE
:102B7000FBE700002DE9FF410F466946FFF7D0FF54
:102B800000248046254644450BDA0DEBC4035DF86E
:102B900034105E6878193246FFF730F83544013456
:102BA000F1E7284604B0BDE8F081000038B50546DD
:102BB000FFF7E0FF044601462846FFF711FF2046D5
:102BC00038BD000030B5084D0A4491420BD011F8D1
:102BD000013B09245840013CF7D040F300032B404F
:102BE00083EA5000F7E730BD2083B8ED0246006865
:102BF00048B103681360D388118901339BB29942AD
:102C0000D38038BF1381704770B588B00D46044635
:102C1000202200216846FFF71BF820460495FFF7A5
:102C2000E5FF054658B16B46044608AE1A4603CA8E
:102C3000B24220606160134604F10804F6D12846D0
:102C400008B070BD2DE9F04130B9274B274A40F25A
:102C5000C531274803F0C8FD0B7C23B9254B234A17
:102C600040F2C631F5E7C66986B9C161BDE8F081B9
:102C7000002B29DA930CAB4229D1B44201D10C606C
:102C8000F3E7C8F800100C60BDE8F0814B6823F052
:102C90006047BD0C4FEAD37EC3F3807C15EA230561
:102CA00038BF3D46B04634466368BEEBD37F23F061
:102CB0006042DDD1974203D1C3F380739C450AD1B2
:102CC000974205E01C46EFE7AA4206D013469D4214
:102CD0002CBF00230123002BCFD12368A046002B5B
:102CE000F0D12160BDE8F081C46F0008B86D000824
:102CF0007C7000089D70000808B5034A034B044827
:102D000040F25E3103F070FD946D00083C700008E5
:102D10007C70000808B503680B60C388016033B994
:102D2000044B054A05484FF4C76103F05DFD013BC4
:102D3000C38008BD0C700008086E00087C70000895
:102D400070B50C4600F10C05616831B9E38A61F396
:102D50000903E3820020002170BD0E682846FFF7BA
:102D6000D9FF6660F0E7000008B5426832B10B4B4E
:102D70000B4A0C4840F22F4103F036FDC37DC3F3EC
:102D80008401013161F38603C375C38A62F30903C9
:102D9000C3821B0A62F3C713C37508BD58700008CD
:102DA000C46D00087C7000082DE9F047089E32B918
:102DB0001F4B204A204840F2395103F015FD01F025
:102DC00007054FEAD6082A4406F0070600EBD100B3
:102DD0004FF47F49954201D1BDE8F08705F0070E19
:102DE00006F0070AD645774638BF5746C7F10807A9
:102DF000511BEC088F4228BF0F46045D08EBD6013B
:102E000004FA0EF413F801C029FA07FE24FA0AF4B2
:102E10005FFA8EFE8CEA04044EFA0AFE04EA0E04FF
:102E20008CEA040C03F801C03D443E44D2E700BFE5
:102E3000D86F0008DC6D00087C7000082DE9F041B7
:102E400006460F4600254FF6FF7441F221082A4638
:102E500030463946FDF7C8F9C0B284EA0024082399
:102E600014F4004F4FEA4404A4B203F1FF3318BF37
:102E700084EA080413F0FF03F2D10835402DE6D1AF
:102E80002046BDE8F081000010B50A4441F221045B
:102E9000914200D110BD11F8013B80EA03200823C4
:102EA00010F4004F4FEA400080B203F1FF3318BF27
:102EB000604013F0FF03F3D1EAE700002DE9F04F83
:102EC00085B08A468DE80C00BDF83C40814630B99B
:102ED000494B4A4A40F26E31494803F085FC11F0F3
:102EE000604F04D0474B454A40F26F31F4E7009BF6
:102EF000002B7ED024B10E9B002B7AD0072C28D833
:102F000009F10C00FFF772FE054628B96FF00205C3
:102F1000284605B0BDE8F08F14220021FEF798FE88
:102F200022460E9905F10800FEF768FE631C2B741B
:102F3000009B1B782C4403F01F0363F03F032372B4
:102F40004AF000436B6029464846FFF77BFE0125A7
:102F5000DEE7019B1B0A4FF00008029300F10C030F
:102F60004FF0800B4646454603930398FFF73EFE1D
:102F700007460028CAD014220021FEF769FEB6BB1E
:102F80009DF804303B729DF808307B7202220E9B44
:102F9000711E1944B4420AD9B8180132D2B211F8DC
:102FA00001EF80F808E00136072AB6B2F2D1009BA3
:102FB000197801F01F01B44208BF4FF0400BB81858
:102FC00041EA48114BEA0103037201324AF000431F
:102FD0007B603A7439464846FFF734FE0135B44207
:102FE0002DB288F001084FF0000BBED190E700220F
:102FF000CDE76FF001058BE7C46F0008A86D0008EE
:103000007C700008E86F00082DE9F0471E46CB8A67
:103010009146C3F30902062A80460F4619D013468B
:103020000021B0B28DB25A1992B2052A09D9A8422C
:1030300010D8FA8A034463F30902FA820120BDE83A
:10304000F087A842F3D93A4419F801409476013147
:10305000E8E70025FB8A7C68C3F30900821F1C2374
:10306000B2FBF3FA03FB1A2A1FFA8AF27CB301219E
:103070002368002B39D1B31F03441C20B3FBF0F3AA
:1030800001339BB299420CD2BAF1000F09D14046EC
:10309000FFF7ACFD08B1C0F800A0206008B30446FB
:1030A0000022B6B24FF0000AB54230D2691E494440
:1030B0001346E01801339BB211F801EF80F804E0E9
:1030C00001351C2BADB214D0AE42F2D8ECE740462D
:1030D000FFF78CFD044608B1002303607C60002CE0
:1030E000DED16FF00200BDE8F087013189B21C46E5
:1030F000BEE7AE42D8D94046FFF778FD08B1C0F828
:1031000000A020600028ECD004460022CCE7FB8A17
:10311000C3F30902164466F30903FB828EE700003D
:10312000F8B50E4615461F46044628B9144B154AF5
:1031300015484F2103F058FB24220021FEF788FD9B
:10314000069B6360079B23626A094FF6FF739A42EE
:103150004FF0000028BF1A46A7602070A061E06110
:1031600097B204F10C05824205D100232B6027821F
:103170006382A382F8BD2E60013035462036F2E727
:10318000C06F0008346D00087C70000808B528B9CD
:10319000084B094A7321094803F026FB037823B939
:1031A0004BB2002B01DD017008BD054B024A7D21A9
:1031B000F1E700BFC46F0008406D00087C70000894
:1031C000086F0008007870472DE9F7430D9EBDF8A1
:1031D00028900B9D9DF83040BDF838800746194671
:1031E000104616B9B8F1000F43D11F2C41D83B78D7
:1031F000D3B9B8F1070F39D839F0030339D14246B2
:1032000031464FF6FF70FFF73FFE4FEA092920F0E5
:10321000010009F44079400449EA0464400C44EA9E
:1032200040244FF6FF730DE043EA0923B8F1070F7E
:1032300043EA0464F5D9FFF701FE42463146FFF741
:1032400023FE03468DE840012A4621463846FFF713
:1032500035FE0DB9FFF750FD2B780133DBB21F2B84
:1032600088BF00232B7003B0BDE8F0836FF003002C
:10327000F9E76FF00100F6E72DE9F7430E9F0B9D8C
:103280009DF83480BDF83C6081469DF8300007B958
:10329000C6BB1F2836D899F800E0BEF1000F34D025
:1032A0000C0244F080049DF8281044EAC83444EA33
:1032B000014444EA0E04072E44EA006415D9194675
:1032C0001046FFF7BBFD32463946FFF7DDFD0346EA
:1032D000019600972A4621464846FFF7EFFDB8F1D0
:1032E000010F0CD125B9FFF707FD4FF6FF73EFE78C
:1032F0002B780133DBB21F2B88BF00232B7003B068
:10330000BDE8F0836FF00100F9E76FF00300F6E726
:10331000C06900B104307047C1690B68C3610C30EB
:10332000FFF7F8BC2DE9F84FD0F818A0DFF86C8053
:10333000054616461F4654464FF0000900F10C0B97
:103340000CB9BDE8F88FD4E90223B21A67EB030386
:10335000994508BF90451FD2AB699C42214628463B
:103360000DD1FFF7EDFCAB691B68AB6121465846F8
:10337000FFF7D0FCAC692346A2461C46E0E7FFF706
:10338000DFFC2368CAF8003021465846FFF7C2FC2C
:103390005446DAF80030EFE72368EDE780841E003A
:1033A0002DE9F04F8BB00D4614460793DDF8509091
:1033B0008246002800F06481B9F1000F00F06081BE
:1033C000531E3F2B00F25C81012A03D1079B002B87
:1033D00040F05681BAF81460F6000023B542089315
:1033E000099380F053812B199E420AD2761B16F066
:1033F000FF0607D1AB4BAC4A40F26751AB4803F034
:10340000F3F92646DAF80C3023B9DAF81030002B3D
:1034100000F0A5802F2D31D8C5F1300846454FF07A
:1034200000032CBF5FFA88F8B0460093294608AB2A
:103430004246DAF80800FFF7B7FCA6EB0807454458
:10344000FFB2BAF8143003F10053063BDB000293DD
:10345000DAF80C3005934FF0300B059B002B51D060
:1034600087B9DAF81000002861D0002F5FD0AB4593
:1034700050D98F4B8C4A40F2A651BFE737464FF0E8
:103480000008DEE7029B23B98A4B874A4FF4B161FB
:10349000B4E7029BE02B28BFE02306935B44AB42DA
:1034A00004931DD95B1B9F4226BFDBB20393039796
:1034B000AB4504D97E4B7C4A40F291519EE705987A
:1034C000CDF8008008ABA5EB0B01039A0430FFF7A1
:1034D0006BFC039B9844FF1A1D445FFA88F8FFB207
:1034E000049B9B4504D3744B6F4A40F29B5185E784
:1034F000029B069ADDF810B09B1A0293059B1B688D
:103500000593AAE7029BBB42ABD26C4B664A40F2E2
:10351000A15173E7CDF800803A46A5EB0B0108AB4B
:10352000FFF742FCB8443D445FFA88F80027BAF838
:103530001430B5EBC30F04D9614B5B4A40F2B15173
:103540005CE7B8F1400F04D95E4B574A40F2B251E4
:1035500054E767B15C4B544A40F2B3514EE70093D5
:10356000324608AB2946DAF80800FFF71DFC731E47
:103570003F2B35B201D8A64204DD544B544A40F2E9
:1035800035213BE760070AD00AAB03EBD401624266
:1035900011F8083C02F00702134101F8083C082C1E
:1035A00021D9102C21D9202C8CBF08230423079A61
:1035B000002A6DD0B4EBC30F6CD0082C04F1FF329D
:1035C00015D89DF8203023FA02F2D10706D54FF026
:1035D000FF3202FA04F423438DF820309DF82030A6
:1035E00089F800304EE00123E1E70223DFE7102CE9
:1035F00011D8BDF8203023FA02F2D20706D54FF0D9
:10360000FF3202FA04F42343ADF82030BDF8203035
:10361000A9F8003036E0202C0ED8089921FA02F2E1
:10362000D30705D54FF0FF3303FA04F40C43089495
:10363000089BC9F8003025E0402C1CD0DDE9086764
:1036400030463946FCF7D0FD002100F0010050EA79
:1036500001030BD0224601200021FCF7D1FD40429E
:1036600061EB410106430F43CDE90867DDE908231B
:10367000C9E9002306E0174B154A4FF42071BDE657
:103680006FF0010528460BB0BDE8F08F1D46F9E745
:10369000012CA3D0082CA1D9102CB7D9202CE5D807
:1036A000C6E700BF146E0008EC6D00087C700008CF
:1036B000366E0008236E00085B6E0008836E0008FB
:1036C000AA6E0008D86E0008F06E00080A6F0008A5
:1036D0006C6D0008086F000830B585B030B9244B18
:1036E000244A40F2B121244803F07EF823B9234B49
:1036F000204A40F2B221F6E7402A04D9204B1D4A65
:1037000040F2B621EFE722B91D4B1A4A4FF42F7150
:10371000E9E70024012A0294039417D11B788DF85D
:10372000083053070AD004AB03EBD203554213F819
:10373000084C05F00705AC4003F8084C009103461F
:10374000002102A8FFF730FB05B030BD082AE5D9FB
:10375000102A03D81B88ADF80830E2E7202A02D8E7
:103760001B680293DDE7D3E90045CDE90245D8E7C0
:10377000446F0008806D00087C7000085F6F0008CF
:10378000086F000870B50C4600F10C05E16819B926
:10379000A1602161A18270BD0E682846FFF7BAFAC8
:1037A000E660F3E72DE9F04FD1F8009091B0C9F34E
:1037B000C01604460D46CDE90223002E50D0C9F3B1
:1037C000C03BC9F30626B9F1000F80F29F8119F0C2
:1037D000C04F40F09B812B7B002B00F09781BBF109
:1037E000020F03D02278B24240F0938109F07F02A9
:1037F000BBF1020F059236D119F07F0FC9F30F2AE2
:1038000001D10AF0030A2B447606059A93F8038047
:1038100046EA0B4646EA82465FEAD81346EA0A06BB
:10382000069300F09A800022002310A961E9082382
:10383000059B009367685B4652462046B8470028C0
:1038400000F08880A7698FB9314604F10C00FFF7BA
:10385000DBF90746D0B96FF0020011B0BDE8F08F78
:103860004FF0020BAFE7C9F3074ACCE73B699E4232
:103870000DD03F68002FF9D1314604F10C00FFF75D
:10388000C3F907460028E6D0A3693B60A761DDE9DC
:103890000801FFF7D3FAB882F97D08F01F06C1F3DB
:1038A0008401711A89B20FFA81FED7E90223BEF1B1
:1038B000000FB8BF01F1200EC9F30461B8BF0FFAC1
:1038C0008EFE079152EA030100F02F81DDE902012B
:1038D000801A61EB030102460B469F480021994282
:1038E00008BF9042C0F02181069B002B3FD0BEF163
:1038F000010F00F31A8118F0400F38D0DDE90223E0
:10390000C7E90223202200210DEB0200FEF7A0F9F7
:10391000DDE90223CDE908232B1D0A932B7BADF8AB
:1039200036A0013BDBB2ADF834309DF81C308DF889
:103930003A309DF814308DF83B3020468DF838B081
:103940008DF83960A36808A998473846FFF70CFA44
:10395000002082E76FF00B007FE7A76917B96FF0CF
:103960000C007AE73B699E4296D03F68F6E7FB7D04
:10397000C8F34012B2EBD31F40F0CE80C3F38403F0
:10398000B34240F0CC8006992B7B4FEA981279B372
:10399000D2073CD4032B40F2C580DDE90223C7E9FE
:1039A00002232B7BAE1D033BDBB23246394604F1CA
:1039B0000C00FFF729FB002808DA39462046FFF7FC
:1039C000BFF93846FFF7D0F9032046E7AB883B83C1
:1039D0002A7B033AD2B2B88A3146FFF755FAFB7D0B
:1039E000B882DA43C2F3C01262F3C713FB75AFE7C4
:1039F0006AB92E1D013BDBB23246394604F10C0098
:103A0000FFF702FB0028D8DB2A7B013AE2E7FA8ABB
:103A1000C2F30902013B052AD9B250D8281D002360
:103A200099420AD907EB020E013210F801CB8EF849
:103A30001AC00133062ADBB2F2D1DDE902898B42DA
:103A400007F11A02CDE908890A9238BF04337A686F
:103A50000B9234BF5B1900230C93FB8AADF836A0A0
:103A6000C3F3090319449DF81C308DF83A309DF8D2
:103A700014308DF83B300023ADF834108DF838B099
:103A80008DF839607B602A7BB88A013A291DFFF7DF
:103A9000FBF93B8BB882834203D1A36808A9204677
:103AA000984708A92046FFF76DFE3846FFF75CF9F6
:103AB000B88A3B8B984214BF11200020CDE678686D
:103AC00010B34FF0060E03689BB9A2EB0E021B2A3F
:103AD00013D80332024405F1040E1F309942ACD9C9
:103AE0001EF801CB02F801CF01339042DBB2F5D1D1
:103AF000A3E70EF11C0E1846E5E7184B184A1948C3
:103B000040F2B31102F070FE034696E76FF0090031
:103B1000A3E66FF00A00A0E66FF00D009DE66FF0DF
:103B20000E009AE66FF00F0097E6FB7D68F38603C0
:103B30006FF3C713FB7539462046FFF701F9069B63
:103B4000002B7FF4D8AEFB7DC3F38402013262F315
:103B50008603FB7503E700BF80841E00746F0008B6
:103B6000586D00087C700008EFF3098305494A6826
:103B700022F001024A60683383F30988002383F34B
:103B80001188704730EF00E0202080F3118862B682
:103B90000B4B0C4AD96821F4E0610904090C0A4373
:103BA0000949DA60CA6842F08072CA6007490A6847
:103BB00042F001020A601022DA7783F8220070478F
:103BC00000ED00E00003FA05F0ED00E0001000E079
:103BD00010B5202383F311880E4B5B6813F4006348
:103BE00014D0F1EE103AEFF30984683C4FF0807383
:103BF000E361094BDB68236684F3098800F0B0FFBA
:103C000010B1064BA36110BD054BFBE783F3118890
:103C100010BD00BF00ED00E030EF00E07B060008C3
:103C20007E060008002304491A465A50C818083373
:103C3000802B4260F9D17047E45700200268436846
:103C40001143016003B1184770470000024AD3686E
:103C500043F0C003D360704700100140024AD368AC
:103C600043F0C003D3607047004400402DE9F041A9
:103C7000D0F85C62F7683368DA0505469CB20DD56A
:103C8000202383F311884FF400710430FFF7D6FF2F
:103C90006FF480733360002383F31188202383F350
:103CA000118805F1040814F02F0333D183F3118830
:103CB000380615D5210613D5202383F3118805F185
:103CC000380000F0B3F9002846DA0821281DFFF774
:103CD000B5FF4FF67F733B40F360002383F31188F9
:103CE0007A060ED563060CD5202383F31188EA6C7F
:103CF0002B6D9A4202D12B6C002B2FD1002383F322
:103D00001188D5F86422D368002B31D01069BDE842
:103D1000F0411847230713D014F0080F0CBF0021FF
:103D20008021E00748BF41F02001A20748BF41F0D1
:103D30004001630748BF41F480714046FFF77EFFB2
:103D4000A406736805D595F860122846194000F05E
:103D50000FFA3468A4B2A6E77060BEE727F0400708
:103D60003F041021281D3F0CFFF768FFF760C5E7EF
:103D7000BDE8F08108B50348FFF778FFBDE80840CB
:103D8000FFF726BF6458002008B50348FFF76EFF11
:103D9000BDE80840FFF71CBFCC5A002010B5094C05
:103DA000094A2046002100F0C1F9084BC4F85C32F2
:103DB000074C084A0021204600F0B8F9064BC4F829
:103DC0005C3210BD645800204D3C000800100140DA
:103DD000CC5A00205D3C00080044004000F16043E4
:103DE00000F01F02400903F5614309018000C9B2D8
:103DF00000F1604083F8001300F561400123934017
:103E0000C0F8803103607047F8B5154682680669CE
:103E1000AA420B46816938BF8568761AB5420446C6
:103E200007D218462A46FDF7E9FEA3692B44A36191
:103E30000DE011D932461846FDF7E0FEAF1B3A46B9
:103E4000E1683044FDF7DAFEE2683A44A261A36813
:103E50005B1BA3602846F8BD18462A46FDF7CEFE38
:103E6000E368E4E783682DE9F04104469342154690
:103E7000266938BF85684069361AB5420F4606D2B2
:103E80002A46FDF7BBFE63692B4463610DE012D93E
:103E90003246A5EB0608FDF7B1FE4246B919E068C7
:103EA000FDF7ACFEE26842446261A3685B1BA3605D
:103EB0002846BDE8F0812A46FDF7A0FEE368E4E766
:103EC00010B50A440024C361029B00604060846016
:103ED000C160816141610261036210BD08B5826900
:103EE0004369934201D1826882B98268013282605B
:103EF0005A1C42611970426903699A4201D3C3682E
:103F00004361002100F006FF002008BD4FF0FF30A4
:103F100008BD000070B5202304460E4683F31188C7
:103F2000A568A5B1A368A269013BA360531CA36166
:103F300015782269934224BFE368A361E3690BB15A
:103F400020469847002383F31188284670BD3146E8
:103F5000204600F0CFFE0028E2DA85F3118870BD1C
:103F60002DE9F74F05460F4690469A46D0F81C902B
:103F7000202686F311884FF0000B144664B12246C8
:103F800039462846FFF740FF034668B951462846A0
:103F900000F0B0FE0028F1D0002383F31188A8EBD5
:103FA000040003B0BDE8F08FB9F1000F03D0019019
:103FB0002846C847019B8BF31188E41A1F4486F3F7
:103FC0001188DBE7C16081614161C3611144009BDD
:103FD000006040608260016103627047F8B504468A
:103FE0000E461746202383F31188A568A5B1A36860
:103FF000013BA36063695A1C62611E702369626998
:104000009A4224BFE3686361E3690BB12046984795
:10401000002080F31188F8BD3946204600F06AFE82
:104020000028E2DA85F31188F8BD0000836942694F
:104030009A4210B501D182687AB9826801328260F1
:104040005A1C82611C7803699A4201D3C368836158
:10405000002100F05FFE204610BD4FF0FF3010BD84
:104060002DE9F74F05460F4690469A46D0F81C902A
:10407000202686F311884FF0000B144664B12246C7
:1040800039462846FFF7EEFE034668B951462846F2
:1040900000F030FE0028F1D0002383F31188A8EB54
:1040A000040003B0BDE8F08FB9F1000F03D0019018
:1040B0002846C847019B8BF31188E41A1F4486F3F6
:1040C0001188DBE7026843681143016003B11847B8
:1040D000704700001430FFF743BF00004FF0FF337C
:1040E0001430FFF73DBF00003830FFF7B9BF0000C4
:1040F0004FF0FF333830FFF7B3BF00001430FFF745
:1041000009BF00004FF0FF311430FFF703BF00007C
:104110003830FFF763BF00004FF0FF323830FFF751
:104120005DBF000000207047FFF738BE37B50F4B6A
:104130000360002343608360C3600123044603746B
:10414000154600900B464FF4807200F15C0114306C
:10415000FFF7B6FE00942B464FF4807204F5AE7163
:1041600004F13800FFF72EFF03B030BDB87000082F
:1041700038B5C36904460D461BB904210844FFF74E
:10418000A1FF294604F11400FFF7A8FE002806DA73
:10419000201D4FF48061BDE83840FFF793BF38BD64
:1041A000026843681143016003B11847704700007B
:1041B00013B5446BD4F894341A681178042915D1D6
:1041C000217C022912D11979128901238B401342D3
:1041D0000CD101A904F14C0001F06AFFD4F8944419
:1041E000019B21790246206800F0E0F902B010BD81
:1041F000143001F0EDBE00004FF0FF33143001F039
:10420000E7BE00004C3001F0BFBF00004FF0FF33AD
:104210004C3001F0B9BF0000143001F0BBBE00000B
:104220004FF0FF31143001F0B5BE00004C3001F00A
:104230008BBF00004FF0FF324C3001F085BF000013
:10424000D0F8942438B5136819780429054601D0AC
:10425000012038BD017C0229FAD112795C89012044
:1042600090400440F4D105F1140001F04DFE0246E7
:104270000028EDD0D5F894544FF4807328686979FC
:1042800000F082F9204638BD406BFFF7D9BF00002F
:1042900000207047704700007FB5124B0360002379
:1042A00043608360C360012502260F4B05740446FA
:1042B0000290019300F18402294600964FF4807326
:1042C000143001F0FDFD094B0193029400964FF468
:1042D000807304F52372294604F14C0001F0C4FEFA
:1042E00004B070BDE070000889420008B1410008C8
:1042F0000B68202282F311880A7903EB8202106294
:104300004A790D3243F822008A7912B103EB820315
:10431000186202230374C0F89414002383F31188F5
:104320007047000038B5037F044613B190F854304D
:10433000ABB9201D01250221FFF732FF04F1140063
:1043400025776FF0010100F0F1FC84F8545004F17E
:104350004C006FF00101BDE8384000F0E7BC38BD0B
:1043600010B5012104460430FFF71AFF002323771C
:1043700084F8543010BD000038B5044600251430D0
:1043800001F0B6FD04F14C00257701F085FE201DFB
:1043900084F854500121FFF703FF2046BDE8384060
:1043A000FFF74EBF90F85C3003F06003202B19D16B
:1043B00090F85D20212A0AD0222A4FF000030ED067
:1043C000202A0FD1084A02650722426504E0064B05
:1043D0000365072343650023836501207047036558
:1043E0004365F9E70020704709230020D0F8943492
:1043F00037B51A681178042904461AD1017C0229BC
:1044000017D11979128901238B40134211D100F180
:104410004C05284601F000FF58B101A9284601F0DB
:1044200047FED4F89444019B21790246206800F0AD
:10443000BDF803B030BD000000EB8103F7B51C6A86
:1044400005460E46F4B1202383F3118805EB860759
:10445000201D0821FFF7A4FEFB685B691B684C3434
:1044600013B1204601F032FE01A9204601F020FEE2
:10447000024648B1019B3146284600F097F80023D8
:1044800083F3118803B0F0BDFB685A691268002AF3
:10449000F5D01B8A013B1340F1D105F15C02EAE73C
:1044A0000D3138B550F82140DCB1202383F3118859
:1044B000D4F894241368527903EB8203DB689B6978
:1044C0005D6845B104216018FFF76AFE294604F1D2
:1044D000140001F023FD2046FFF7B2FE002383F312
:1044E000118838BD7047000001F0CCB8012303707B
:1044F0000023436000F1240200F1380142F8043B3C
:104500008A421361FAD103814381704738B504466A
:10451000202383F3118800254160C5600561456152
:104520008561C561056201F0BDF80223237085F342
:10453000118838BD70B500EB810305465069DA601B
:104540000E46144618B110220021FDF781FBA06928
:1045500018B110220021FDF77BFB31462846BDE84B
:10456000704001F069B90000028902F00102028185
:10457000428902F0010242810022026142618261AD
:10458000C261026201F0ECB9F0B400EB810447892A
:10459000E4680125A4698D403D43458123600023E3
:1045A000A2606360F0BC01F007BA0000F0B400EB59
:1045B00081040789E468012564698D403D430581D4
:1045C00023600023A2606360F0BC01F081BA0000A8
:1045D00070B50223002504460370A0F8645080F8EB
:1045E000665080F8675005814581C5600561456169
:1045F0008561C561056280F84C5001F0B9F86368C7
:104600001B6823B129462046BDE87040184770BD9D
:10461000037880F868300523037043681B6810B581
:1046200004460BB10421984700232381638110BD08
:10463000436890F868201B6802700BB10521184789
:104640007047000090F84C3070B5044613B1002359
:1046500080F84C3004F15C02204601F0A3F9636855
:104660009B6863BB94F85C5015F0600615D194F814
:104670005D3005F07F0545EA032540F202339D4297
:1046800000F00E815BD8022D00F0DC803FD8002DB9
:1046900000F08780012D00F0CF800021204601F03E
:1046A000F1FB0021204601F0E3FB63681B6813B1B6
:1046B000062120469847062384F84C3070BD2046DA
:1046C00098470028CED094F8632094F8623043EAEB
:1046D0000223626D934238BF636594F95C30656D67
:1046E000002B4FF0200380F2FD80002D00F0EC80C5
:1046F000092284F84C2083F311880021636D226D18
:104700002046FFF753FF002383F3118870BDB5F5F2
:10471000817F00F0B180B5F5407F49D0B5F5807F4D
:10472000BBD194F85E30012BB7D1B4F8643023F0DC
:104730000203A4F8643026656665A665C3E740F207
:1047400001639D421ED8B5F5C06F3BD2B5F5A06F91
:10475000A3D1B4F85C30B3F5A06F0ED194F85E30FD
:1047600084F86630204601F05BF863681B6813B17B
:1047700001212046984703232370002323656365A6
:10478000A365A0E7B5F5106F32D040F602439D4215
:1047900052D0B5F5006F80D104F167032365012382
:1047A00024E004F16403236502236365A5658AE7B9
:1047B00094F85E30012B7FF470AFB4F8643043F0AE
:1047C0000203B6E794F86120616894F860304D68A0
:1047D00094F85F1043EA0223204694F85E20A8472D
:1047E00000283FF45AAF4368236503686365A4E774
:1047F0002378042B10D1202383F311882046FFF760
:10480000B3FE86F31188636884F867601B68032130
:1048100021700BB12046984794F85E30002BACD045
:1048200084F867300423237063681B68002BA4D0CE
:10483000022120469847A0E7374B23650223636592
:1048400000239DE794F8601011F0800F204601F0DE
:104850000F010ED001F098F8012806D002287FF44D
:104860001CAF2E4B2365606567E72D4B236565659F
:1048700063E701F07BF8EFE794F85E30002B7FF4FC
:104880000CAF94F8603013F00F013FF476AF1A06C6
:10489000204602D501F00AFB6FE701F0FDFA6CE754
:1048A00094F85E30002B7FF4F8AE94F8603013F08B
:1048B0000F013FF462AF1B06204602D501F0E2FA79
:1048C0005BE701F0D5FA58E7142284F84C2083F313
:1048D00011882B462A4629462046FFF755FE85F3C8
:1048E000118870BD5DB1152284F84C2083F31188C6
:1048F0000021636D226D2046FFF746FE03E70B2281
:1049000084F84C2083F311882B462A4629462046FA
:10491000FFF74CFEE3E700BF1071000808710008C4
:104920000C71000838B590F84C300446152B29D886
:10493000DFE803F03E28282828283E28280B2939BC
:1049400028282828282828283E3E90F8631090F828
:104950006220436D42EA01229A4214D9C268128A47
:10496000B3FBF2F502FB15356DB9202383F31188F3
:104970002B462A462946FFF719FE85F311880A239C
:1049800084F84C3038BD142384F84C30202383F352
:10499000118800231A4619462046FFF7F5FD00232B
:1049A00083F3118838BD836D03B198470023E7E78F
:1049B000002101F067FA0021204601F059FA6368EE
:1049C0001B6813B10621204698470623D8E700004C
:1049D00090F84C20152A38B5044622D8012393407C
:1049E00040F6416213421DD113F480150FD19B0292
:1049F00017D50B2380F84C30202383F311882B46E6
:104A00002A462946FFF7D2FD85F3118838BDC368D1
:104A10009B695B682BB9836D03B19847002384F8C9
:104A20004C3038BD002101F02DFA0021204601F064
:104A30001FFA63681B6813B10621204698470623B6
:104A4000EDE70000024B00221B605B609A6070473C
:104A5000345D0020002303748268054B1B6899684D
:104A60009142FBD25A680360426010605860704700
:104A7000345D002008B5202383F31188037C032BC9
:104A800005D0042B0DD02BB983F3118808BD4369E1
:104A900000221A604FF0FF334361FFF7DBFF002372
:104AA000F2E790E80C001A6002685360F2E7000039
:104AB000002303748268054B1B6899689142FBD8F8
:104AC0005A6803604260106058607047345D00208F
:104AD000054B19690874186802681A6053601861F8
:104AE00001230374FBF7B4BD345D002030B54B1CCB
:104AF00087B005460A4C10D023690A4A01A800F085
:104B000031F92846FFF7E4FF049B13B101A800F038
:104B10007BF92369586907B030BDFFF7D9FFF8E783
:104B2000345D0020754A000838B50C4D41612B6991
:104B300081689A689142044603D8BDE83840FFF77F
:104B400089BF1846FFF7B4FF01232C610146237487
:104B50002046BDE83840FBF77BBD00BF345D002038
:104B6000044B1A681B6990689B68984294BF0020A8
:104B700001207047345D002010B5084C236820697F
:104B80001A6822605460012223611A74FFF790FFB3
:104B900001462069BDE81040FBF75ABD345D002096
:104BA00008B5FFF7DDFF18B1BDE80840FFF7E4BF27
:104BB00008BD0000FEE7000010B50C4CFFF742FFF7
:104BC00000F0C2F880220A49204600F047F801238D
:104BD00044F8180C0374FEF7D7FF002383F3118801
:104BE00062B60448BDE8104000F05AB85C5D002091
:104BF000147100081C71000808B572B6034B5862A6
:104C000000F0DCFB00F06CFCFEE700BF345D002030
:104C100000F034B9EFF3118020B9EFF305832022BF
:104C200082F311887047000010B558B9EFF305847E
:104C3000C4F3080414B180F3118810BDFFF7B0FF6E
:104C400084F3118810BD0000034B59685A68521A4A
:104C50009042FBD8704700BF001000E08260022243
:104C600002740022427470478368A3F17C0243F807
:104C70000C2C026943F83C2C426943F8382C074A53
:104C800043F81C2CC26843F8102C022203F8082CAD
:104C9000002203F8072CA3F11800704769060008EA
:104CA00010B5202383F31188FFF7DEFF00210446AF
:104CB000FFF73AFF002383F31188204610BD000060
:104CC000024B1B6958610F20FFF702BF345D0020C3
:104CD000202383F31188FFF7F3BF000008B50146D6
:104CE000202383F311880820FFF700FF002383F3BC
:104CF000118808BD49B1064B42681B6918605A60AB
:104D0000136043600420FFF7F1BE4FF0FF3070479F
:104D1000345D00200368984206D01A680260506033
:104D200059611846FFF796BE7047000038B5044633
:104D30000D462068844200D138BD036823605C6062
:104D40004561FFF787FEF4E7054B03F114025A6152
:104D50009A614FF0FF32DA6100221A62704700BF99
:104D6000345D0020F8B5274F0361C2600D4604464C
:104D700001F086FA3B46022D53F8142F294638BF1E
:104D800002219A423E461D460AD138627C61BC61CE
:104D9000084422606260A160BDE8F84001F05EBA9C
:104DA000D7F820E0A0EB0E035F181FD30027906810
:104DB000834217D8376AAA421F44376201D0C01A0B
:104DC000906073699A68914219D85A68236062604A
:104DD00014605C60A1609868411A99604FF0FF33DD
:104DE000F361F8BD97601B1A1268E0E793689F4271
:104DF00003D20EEB070001F03FFA3946E1E7891ACA
:104E00001B68DFE7345D002038B51B4B01685A6929
:104E100090421D4603F114020CD0446821600368DF
:104E2000002193425C60C16025D09A6881680A4481
:104E30009A6038BD59614A605B6900219342C16044
:104E400003D1BDE8384001F011BA9A6881680A447C
:104E50009A602C6A01F014FA6A699268001B824217
:104E600009D9111A012998BF821C286ABDE8384067
:104E7000104401F001BA38BD345D00202DE9F84F2F
:104E8000204C0027656904F11406B84601F0F8F9D2
:104E9000236AA0EB030AAB6853451DD84FF02009E5
:104EA000236AAA68D5F80CB013442362AB68AAEB56
:104EB000030A2B68B3425E606361EF6001D101F0C9
:104EC000D5F988F311882869D84789F3118865696D
:104ED000AB689A45E4D2D9E76369B34210D0206247
:104EE0009A68A2EB0A029A60226AAB68821A9B1A3D
:104EF000022B2CBFC0180230BDE8F84F01F0BCB93E
:104F0000BDE8F88F345D00200C2303604FF0FF30C4
:104F10007047000000207047FEE700007047000067
:104F20004FF0FF3070470000022906D0032906D059
:104F30000129064818BF0020704705487047032A1A
:104F40009ABF044800EBC2000020704708720008B6
:104F5000BC7100081023002070B59AB001AD064660
:104F600008462946144600F095F82846FCF768FEE6
:104F7000C0B2431C5B0086E81800237003236370F3
:104F8000002302341946DAB2904204F1020401D837
:104F90001AB070BDEA5C04F8022C04F8011C01335D
:104FA000F1E7000008B5202383F311880348FFF7D9
:104FB0001DFA002383F3118808BD00BFF05E0020B6
:104FC00010B50446052916D8DFE801F016150316BA
:104FD000161D202383F311880E4A0121FFF7AAFA38
:104FE00020460D4A0221FFF7A5FA0C48FFF7C4F945
:104FF000002383F3118810BD202383F31188074811
:10500000FFF790F9F4E7202383F311880348FFF7B3
:10501000A7F9EDE73C71000860710008F05E002020
:1050200038B50C4D0C4C0D492A4604F10800FFF729
:1050300093FF05F1CA0204F110000949FFF78CFF44
:1050400005F5CA7204F118000649BDE83840FFF7BB
:1050500083BF00BFB8630020102300208C710008BC
:1050600096710008A171000870B5044608460D4607
:10507000FCF7E6FDC6B22046013403780BB91846AA
:1050800070BD32462946FCF7C3FD0028F3D101204C
:1050900070BD00002DE9F84F05460C46FCF7D0FD29
:1050A0002B49C6B22846FFF7DFFF08B10336F6B238
:1050B00028492846FFF7D8FF08B11036F6B2632E0C
:1050C0000DD8DFF88C80DFF88C90234FDFF890A0AC
:1050D000DFF890B02E7846B92670BDE8F88F2946E3
:1050E0002046BDE8F84F01F0E9BC252E2CD107225F
:1050F00041462846FCF78CFD58B9DBF800302360A8
:10510000DBF804306360BBF80830238107350A34CC
:10511000E0E7082249462846FCF77AFDA0B90F4B84
:10512000A21C13F8011F09095345C95D02F8021CAE
:10513000197801F00F0102F10202C95D02F8031CA7
:10514000EFD118340835C5E7267001350134C1E7C1
:1051500028720008A1710008307200080F7AFF1F42
:105160001B7AFF1F1A6C0008BFF34F8F024AD368E7
:10517000DB03FCD4704700BF003C024008B5094B7C
:105180001B7873B9FFF7F0FF074B1A69002ABFBFFE
:10519000064A5A6002F188325A601A6822F4806224
:1051A0001A6008BD16660020003C024023016745D6
:1051B00008B50B4B1B7893B9FFF7D6FF094B1A695B
:1051C00042F000421A611A6842F480521A601A686A
:1051D00022F480521A601A6842F480621A6008BD94
:1051E00016660020003C0240072870B513D80B4A11
:1051F0000B4C137863B90B4E4FF0006144F8231049
:1052000056F823500133082B2944F7D1012313709A
:1052100054F8200070BD002070BD00BF386600202B
:105220001866002044720008014B53F820007047B4
:105230004472000808207047072810B5044601D9B9
:10524000002010BDFFF7D0FF064B53F82430184460
:10525000C21A0BB9012010BD12680132F0D1043B13
:10526000F6E700BF44720008072810B5044621D8AD
:10527000FFF77AFFFFF782FF0F4AF323D360C300E3
:10528000DBB243F4007343F002031361136943F488
:1052900080331361FFF768FFFFF7A6FF074B53F852
:1052A000241000F019F9FFF783FF2046BDE81040F5
:1052B000FFF7C2BF002010BD003C0240447200084E
:1052C0002DE9F84312F00103154640D184182E4A07
:1052D00094423CD82D4B1B6813F0010337D02C4C63
:1052E000FFF74CFFF323E360FFF73EFF40F2012797
:1052F000032D01D9830713D0254C0F46401A40F2E5
:105300000118EB1B0B44012B00EB0706236924D883
:1053100023F001032361FFF74BFF0120BDE8F88371
:10532000236923F44073236123693B43236151F8CC
:10533000046B0660BFF34F8FFFF716FF03689E42B2
:1053400008D0236923F001032361FFF731FF002018
:10535000BDE8F883043D0430CAE723F440732361B9
:10536000236943EA08032361B94637F8023B3380D7
:10537000BFF34F8FFFF7F8FE3688B9F80030B6B2AA
:10538000B342BED0DDE700BFFFFF07080038024090
:10539000003C0240084908B50B7828B153B9FFF723
:1053A000EDFE01230B7008BD23B1BDE80840087075
:1053B000FFF7FEBE08BD00BF166600204FF4802137
:1053C0004FF0005000F08AB838B500F059FF074B95
:1053D0001A68824207D9064AD2E90045003445F1ED
:1053E0000105C2E90045186038BD00BF3C660020D9
:1053F0004066002070B5FFF70DFC0646FFF7E4FF9E
:10540000054BD3E90045241845F100053046FFF768
:105410000BFC2046294670BD4066002008B5FFF70A
:10542000E9FF4FF47A720023FAF7F6FE08BD00BFD9
:1054300010B50244064B0439D2B2904200D110BDDF
:10544000441C00B253F8200041F8040FE0B2F4E726
:1054500050280040104B30B51C6F240407D41C6F3B
:1054600044F400741C671C6F44F400441C670B4C2C
:10547000236843F4807323600244094B0439D2B299
:10548000904200D130BD441C00B251F8045F43F893
:105490002050E0B2F4E700BF003802400070004046
:1054A0005028004007B5012201A90020FFF7C0FFE6
:1054B000019803B05DF804FB13B50446FFF7F2FF53
:1054C000A04206D002A9012241F8044D0020FFF7B6
:1054D000C1FF02B010BD000070470000704700001F
:1054E00070470000074B45F255521A6002225A607D
:1054F00040F6FF729A604CF6CC421A60024B0122D1
:105500001A7070470030004049660020034B1B783A
:105510001BB1034B4AF6AA221A6070474966002065
:1055200000300040034B1B689B0042BF024B01222E
:105530001A7070477438024048660020024B4FF0E2
:1055400080721A60704700BF74380240014B1878AF
:10555000704700BF4866002070470000FEE700006B
:10556000084A094B09498B4204D3094A0021934256
:1055700005D3704752F8040F43F8040BF3E743F8E0
:10558000041BF4E748740008EC660020EC66002079
:10559000EC660020036F70B5C46E9E6800214FF06A
:1055A000FF354A01A3180131D3F800090028BEBF16
:1055B000D3F8000940F08040C3F80009D3F8000B8D
:1055C0000028BEBFD3F8000B40F08040C3F8000BAA
:1055D000A3188E42C3F80859C3F8085BE1D24FF014
:1055E0000113C4F81C3870BD890141F0200101612C
:1055F00003699B06FCD41220FFF726BB204B03EB6C
:1056000080022DE9F047D2F80CE0DD6EDEF81420C0
:10561000461CD2F800C005EB063605EB4018516871
:1056200061450BD3D5F83428012303FA00F022EAB0
:105630000000C5F834081846BDE8F087BEF81040F1
:10564000ACEB0103A34228BF2346D8F81849A4B203
:10565000B3EB840F10D894681F46A4F1040959F8DD
:1056600004AFC6F800A0042F01D9043FF7E71C449B
:105670000B4494605360D2E70020BDE8F08700BF80
:105680004C66002010B5054C2046FEF72FFF4FF06A
:10569000A043E366024B236710BD00BF4C660020A9
:1056A000887200080378012B70B5054650D12A4B4B
:1056B000C46E98421BD1294B5A6B42F080025A6348
:1056C0005A6D42F080025A655A6D5A6942F0800262
:1056D0005A615A6922F080025A610E2143205B69A7
:1056E000FEF77CFB1E4BE3601E4BC4F80038002322
:1056F000C4F8003EC0232360EE6E4FF40413A3638E
:105700003369002BFCDA012333610C20FFF79CFA8C
:105710003369DB07FCD41220FFF796FA3369002BBC
:10572000FCDA0026A6602846FFF734FF6B68C4F851
:105730001068DB68C4F81468C4F81C684BB90A4BDD
:10574000A3614FF0FF336361A36843F00103A360DB
:1057500070BD064BF4E700BF4C66002000380240E5
:105760004014004003002002003C30C0083C30C020
:10577000F8B5C46E054600212046FFF735FF296FB6
:1057800000234FF001128F68C4F834384FF00066E0
:10579000C4F81C284FF0FF3004EB431201339F4242
:1057A000C2F80069C2F8006BC2F80809C2F8080B19
:1057B000F2D20B68EA6E6B6763621023136116699D
:1057C00016F01006FBD11220FFF73EFAD4F800388D
:1057D00023F4FE63C4F80038A36943F4402343F084
:1057E0001003A3610923C4F81038C4F814380A4B15
:1057F000EB604FF0C043C4F8103B084BC4F8003BCB
:10580000C4F81069C4F800396B6F03F1100243F457
:1058100080136A67A362F8BD6472000840800010BC
:10582000C26E90F86610D2F8003823F4FE6343EAA3
:105830000113C2F8003870472DE9F0410EB200EBB9
:1058400086080D46D8F80C100F6807F00303022BEA
:1058500050D0032B50D03D4A3D4F012B18BF174667
:10586000C46E4FEA451E04EB0E030022C3F8102B52
:105870008A6905F1100C002A40D04A8A05F15803C4
:105880005B013A43E2500123D4F81C2803FA0CF3DD
:105890001343A6444A69C4F81C380023CEF81039D3
:1058A00005F13F03002A39D00A8A898B9208012921
:1058B00088BF4A43416F04EB8303561841EA024212
:1058C000466729465A602046FFF78EFED8F80C300E
:1058D0001B8A43EA85531F4305F148035B01E750E8
:1058E0000123D4F81C2803FA05F51543C4F81C5805
:1058F000BDE8F081174FB3E7174FB1E704EB46134C
:10590000D3F8002B22F40042C3F8002BD4F81C2853
:10591000012303FA0CF322EA0303BAE704EB83033F
:105920000E4A5A6004EB461629462046FFF75CFEF5
:10593000D6F8003923F40043C6F80039D4F81C38EF
:10594000012202FA05F523EA0505CFE700800010E1
:10595000008004100080081000800C100004000279
:10596000026F12684267FFF715BE00005831C36E20
:1059700049015B5813F4004004D013F4001F14BF16
:1059800001200220704700004831C36E49015B5876
:1059900013F4004004D013F4001F14BF01200220B0
:1059A0007047000000EB8101CB68196A0B68136037
:1059B0004B6853607047000000EB810330B5DD6831
:1059C000AA691368D36019B9402B84BF40231360C0
:1059D0006B8A1468C26E1C44013CB4FBF3F463434D
:1059E000033323F0030302EB411043EAC44343F0C3
:1059F000C043C0F8103B2B6803F00303012B09B22E
:105A00000ED1D2F8083802EB411013F4807FD0F8A1
:105A1000003B14BF43F0805343F00053C0F8003BF9
:105A200002EB4112D2F8003B43F00443C2F8003BC2
:105A300030BD00002DE9F041244DEE6E06EB401321
:105A40000446D3F8087BC3F8087B38070AD5D6F894
:105A50001438190706D505EB84032146DB68284670
:105A60005B689847FA072FD5D6F81438DB072BD593
:105A700005EB8403D968CCB98B69488A5E68B6FBAC
:105A8000F0F200FB12628AB91868DA6890420DD20F
:105A9000121A83E81400202383F311880B4821464F
:105AA000FFF78AFF84F31188BDE8F081012303FA30
:105AB00004F26B8923EA02036B81CB6823B1214690
:105AC0000248BDE8F0411847BDE8F0814C6600206F
:105AD00000EB810370B5DD68C36E6C692668E66013
